00COTAHIST.2022BOVESPA 20220127                                                                                                                                                                                                                      
012022012702A1AP34      010ADVANCE AUTODRN          R$  000000000763800000000076380000000007588000000000763400000000075880000000007588000000000000000003000000000000006192000000000047275430000000000000009999123100000010000000000000BRA1APBDR001109
012022012702A1BB34      010ABB LTD     DRN          R$  000000000460000000000047520000000004600000000000467100000000046560000000004656000000000517500013000000000000001916000000000008950012000000000000009999123100000010000000000000BRA1BBBDR009101
012022012702A1CR34      010AMCOR PLC   DRN          R$  000000000639000000000063900000000006363000000000636300000000063630000000006363000000000000000002000000000000000491000000000003124260000000000000009999123100000010000000000000BRA1CRBDR003105
012022012702A1DM34      010ARCHER DANIEDRN          R$  000000003995000000000399500000000039950000000003995000000000399500000000000000000000000000000001000000000000000001000000000000039950000000000000009999123100000010000000000000BRA1DMBDR002108
012022012702A1EG34      010AEGON NV    DRN          R$  000000000303300000000030330000000003033000000000303300000000030330000000000000000000000303300001000000000000000470000000000001425510000000000000009999123100000010000000000000BRA1EGBDR002102
012022012702A1ES34      010AES CORP    DRN          R$  000000001199500000000119950000000011890000000001189000000000118900000000011890000000000000000002000000000000000695000000000008264075000000000000009999123100000010000000000000BRA1ESBDR007108
012022012702A1GI34      010AGILENT TECHDRN          R$  000000003571100000000357110000000035711000000003571100000000357110000000000000000000003653100001000000000000000001000000000000035711000000000000009999123100000010000000000000BRA1GIBDR003108
012022012702A1IV34      010APARTMENT INDRN          R$  000000000371000000000037200000000003550000000000370200000000035500000000003550000000000430000006000000000000001213000000000004490735000000000000009999123100000010000000000000BRA1IVBDR002106
012022012702A1KA34      010AKAMAI TECHNDRN          R$  000000000498800000000049880000000004988000000000498800000000049880000000004400000000000498800001000000000000000570000000000002843160000000000000009999123100000010000000000000BRA1KABDR002101
012022012702A1LB34      010ALBEMARLE CODRN          R$  000000011368200000001136820000000110763000000011090200000001107630000000110763000000013500000002000000000000000021000000000002328942000000000000009999123100000010000000000000BRA1LBBDR008108
012022012702A1LG34      010ALIGN TECHNODRN          R$  000000006300000000000630000000000061657000000006166700000000616570000000061657000000006300000004000000000000000246000000000015170308000000000000009999123100000010000000000000BRA1LGBDR007100
012022012702A1LL34      010ALLIANCE DATDRN          R$  000000000848900000000084920000000008455000000000848600000000084550000000008556000000000971300007000000000000000084000000000000712843000000000000009999123100000010000000000000BRA1LLBDR007109
012022012702A1LN34      010ALNYLAM PHARDRN          R$  000000000347200000000035120000000003440000000000347700000000034790000000003340000000000347900005000000000000000033000000000000114764000000000000009999123100000010000000000000BRA1LNBDR003100
012022012702A1MB34      010AMERISOURCEBDRN          R$  000000003617300000000361730000000036173000000003617300000000361730000000000000000000000000000001000000000000000001000000000000036173000000000000009999123100000010000000000000BRA1MBBDR006108
012022012702A1MD34      010ADVANCED MICDRN          R$  000000005980100000000603190000000055331000000005761200000000553310000000055331000000005867900269000000000000018008000000001037490224000000000000009999123100000010000000000000BRA1MDBDR002100
012022012702A1MT34      010APPLIED MATEDRN          R$  000000007200000000000720000000000070243000000007109800000000704080000000070408000000007500000033000000000000000955000000000067898873000000000000009999123100000010000000000000BRA1MTBDR008108
012022012702A1MX34      010AMERICAMOVILDRN          R$  000000000496200000000049620000000004962000000000496200000000049620000000000000000000000496200001000000000000001580000000000007839960000000000000009999123100000010000000000000BRA1MXBDR000103
012022012702A1NE34      010ARISTA NETWODRN          R$  000000001595200000000159520000000015920000000001593000000000159200000000000000000000001608000009000000000000000009000000000000143376000000000000009999123100000010000000000000BRA1NEBDR008101
012022012702A1NT34      010ANTHEM INC  DRN          R$  000000004775000000000477500000000047750000000004775000000000477500000000000000000000000000000001000000000000000010000000000000477500000000000000009999123100000010000000000000BRA1NTBDR006108
012022012702A1PA34      010APA CORP    DRN ED       R$  000000001824600000000182460000000017640000000001784500000000178930000000017200000000001789300008000000000000000200000000000003569022000000000000009999123100000010000000000000BRA1PABDR001109
012022012702A1RE34      010ALEXANDRIA RDRN          R$  000000002569300000000256930000000025017000000002501900000000250170000000025017000000003181600005000000000000000925000000000023143206000000000000009999123100000010000000000000BRA1REBDR009108
012022012702A1TH34      010AUTOHOME INCDRN          R$  000000000159200000000015920000000001592000000000159200000000015920000000001510000000000159200001000000000000001880000000000002992960000000000000009999123100000010000000000000BRA1THBDR008101
012022012702A1UA34      010ANGLOGOLD ASDRN          R$  000000000248200000000025270000000002451000000000251200000000024830000000002483000000000279800017000000000000000400000000000001005138000000000000009999123100000010000000000000BRA1UABDR001102
012022012702A1UT34      010AUTODESK INCDRN          R$  000000003183900000000318390000000030897000000003110800000000308970000000030897000000003561200007000000000000000127000000000003950775000000000000009999123100000010000000000000BRA1UTBDR001100
012022012702A1VB34      010AVALONBAY CODRN          R$  000000003227400000000322740000000031995000000003199900000000319950000000031995000000000000000002000000000000000061000000000001951974000000000000009999123100000010000000000000BRA1VBBDR007108
012022012702A1YX34      010ALTERYX INC DRN          R$  000000000136800000000013680000000001368000000000136800000000013680000000001368000000000143300001000000000000000010000000000000013680000000000000009999123100000010000000000000BRA1YXBDR005100
012022012702A1ZN34      010ASTRAZENECA DRN          R$  000000000517900000000054210000000005166000000000534800000000053480000000005348000000000543900155000000000000001891000000000010113962000000000000009999123100000010000000000000BRA1ZNBDR003102
012022012702A2MC34      010AMC ENTERT HDRN          R$  000000000147300000000014790000000001323000000000143400000000013230000000001177000000000147300019000000000000006007000000000008618348000000000000009999123100000010000000000000BRA2MCBDR002100
012022012702AALL34      010AMERICAN AIRDRN          R$  000000000880000000000090140000000008490000000000868500000000085300000000008530000000000857400211000000000000050065000000000434835238000000000000009999123100000010000000000000BRAALLBDR003115
012022012702AALR3       010ALLIAR      ON      NM   R$  000000000158900000000016000000000001532000000000156600000000015640000000001564000000000157801713000000000000249200000000000390349800000000000000009999123100000010000000000000BRAALRACNOR6102
012022012702AAPL34      010APPLE       DRN          R$  000000000867200000000088480000000008571000000000870000000000085870000000008587000000000860003762000000000000292233000000002542476343000000000000009999123100000010000000000000BRAAPLBDR004140
012022012702ABBV34      010ABBVIE      DRN          R$  000000007450000000000745000000000072299000000007353300000000734390000000073439000000007611100133000000000000001161000000000085372056000000000000009999123100000010000000000000BRABBVBDR001124
012022012702ABCB4       010ABC BRASIL  PN      N2   R$  000000000158800000000016100000000001566000000000158500000000015910000000001591000000000159305574000000000000880200000000001395222900000000000000009999123100000010000000000000BRABCBACNPR4139
012022012702ABEV3       010AMBEV S/A   ON           R$  000000000150600000000015490000000001493000000000152900000000015400000000001537000000000154037691000000000024801400000000037929336500000000000000009999123100000010000000000000BRABEVACNOR1125
012022012702ABTT34      010ABBOTT      DRN          R$  000000001634500000000163750000000016211000000001621300000000162110000000016211000000001702800003000000000000002935000000000047585795000000000000009999123100000010000000000000BRABTTBDR007141
012022012702ABUD34      010AB INBEV    DRN          R$  000000000577100000000057710000000005724000000000576100000000057240000000005724000000000605300004000000000000002588000000000014911626000000000000009999123100000010000000000000BRABUDBDR009104
012022012702ACNB34      010ACCENTURE   DRN          R$  000000018204400000001834750000000180121000000018035400000001801210000000180121000000023107400006000000000000000409000000000073764998000000000000009999123100000010000000000000BRACNBBDR006118
012022012702ADBE34      010ADOBE INC   DRN          R$  000000000542800000000054860000000005278000000000532500000000053570000000005315000000000535700061000000000000055582000000000295984394000000000000009999123100000010000000000000BRADBEBDR003101
012022012702AERI3       010AERIS       ON      NM   R$  000000000060800000000006250000000000603000000000061100000000006100000000000609000000000061003673000000000001684300000000001030686100000000000000009999123100000010000000000000BRAERIACNOR4100
012022012702AESB3       010AES BRASIL  ON      NM   R$  000000000117100000000011780000000001140000000000115100000000011500000000001145000000000115004349000000000000880800000000001013813400000000000000009999123100000010000000000000BRAESBACNOR7102
012022012702AFLT3       010AFLUENTE T  ON           R$  000000000085300000000009150000000000853000000000089600000000009150000000000870000000000094200014000000000000002700000000000002419300000000000000009999123100000010000000000000BRAFLTACNOR1118
012022012702AGRO3       010BRASILAGRO  ON      NM   R$  000000000263000000000026500000000002597000000000262500000000026410000000002641000000000264202701000000000000590100000000001549155000000000000000009999123100000010000000000000BRAGROACNOR7111
012022012702AGXY3       010AGROGALAXY  ON      NM   R$  000000000104900000000010590000000001000000000000102600000000010390000000001039000000000104000756000000000000118500000000000121598200000000000000009999123100000010000000000000BRAGXYACNOR4100
012022012702AIRB34      010AIRBNB      DRN          R$  000000000387700000000039140000000003737000000000382700000000037400000000003740000000000382000859000000000000071204000000000272559710000000000000009999123100000010000000000000BRAIRBBDR004100
012022012702ALLD3       010ALLIED      ON      NM   R$  000000000160100000000016080000000001511000000000154400000000015550000000001518000000000155500569000000000000114600000000000177009600000000000000009999123100000010000000000000BRALLDACNOR3102
012022012702ALPA3       010ALPARGATAS  ON      N1   R$  000000000259800000000026160000000002550000000000259900000000026160000000002490000000000268900023000000000000004500000000000011696600000000000000009999123100000010000000000000BRALPAACNOR0231
012022012702ALPA4       010ALPARGATAS  PN      N1   R$  000000000289800000000030560000000002872000000000296600000000030210000000003020000000000302120895000000000004107200000000012184912800000000000000009999123100000010000000000000BRALPAACNPR7231
012022012702ALPK3       010ESTAPAR     ON      NM   R$  000000000041800000000004330000000000415000000000042200000000004300000000000421000000000043000074000000000000014300000000000006043300000000000000009999123100000010000000000000BRALPKACNOR9101
012022012702ALSO3       010ALIANSCSONAEON      NM   R$  000000000222900000000022580000000002178000000000221600000000022200000000002220000000000222108743000000000001927600000000004273476500000000000000009999123100000010000000000000BRALSOACNOR5101
012022012702ALUP3       010ALUPAR      ON      N2   R$  000000000082300000000008560000000000810000000000082800000000008120000000000812000000000082400094000000000000016700000000000013827900000000000000009999123100000010000000000000BRALUPACNOR8112
012022012702ALUP4       010ALUPAR      PN      N2   R$  000000000082300000000008290000000000818000000000082300000000008290000000000825000000000082900077000000000000012700000000000010457000000000000000009999123100000010000000000000BRALUPACNPR5112
012022012702ALUP11      010ALUPAR      UNT     N2   R$  000000000246200000000024850000000002458000000000247400000000024840000000002475000000000248402503000000000000461300000000001141288800000000000000009999123100000010000000000000BRALUPCDAM15112
012022012702AMAR3       010LOJAS MARISAON      NM   R$  000000000034200000000003530000000000341000000000034600000000003450000000000344000000000034505579000000000006553500000000002270324000000000000000009999123100000010000000000000BRAMARACNOR4113
012022012702AMBP3       010AMBIPAR     ON      NM   R$  000000000388000000000039290000000003770000000000382900000000038550000000003855000000000385702653000000000000625700000000002396211800000000000000009999123100000010000000000000BRAMBPACNOR6101
012022012702AMER3       010AMERICANAS  ON      NM   R$  000000000346900000000034690000000003335000000000337900000000033470000000003347000000000334926112000000000007311800000000024710613900000000000000009999123100000010000000000000BRAMERACNOR6100
012022012702AMGN34      010AMGEN       DRN          R$  000000000429000000000043960000000004290000000000432900000000043150000000004315000000000455000005000000000000008041000000000034816785000000000000009999123100000010000000000000BRAMGNBDR004141
012022012702AMZO34      010AMAZON      DRN          R$  000000000960100000000099350000000009561000000000973500000000096360000000009636000000000968702440000000000000204194000000001987864173000000000000009999123100000010000000000000BRAMZOBDR002102
012022012702ANIM3       010ANIMA       ON      NM   R$  000000000081900000000008440000000000814000000000082700000000008350000000000832000000000083507320000000000002332800000000001929465200000000000000009999123100000010000000000000BRANIMACNOR6107
012022012702APER3       010ALPER S.A.  ON      NM   R$  000000000308500000000032540000000003064000000000317100000000032150000000003178000000000321500195000000000000047600000000000150970000000000000000009999123100000010000000000000BRAPERACNOR9103
012022012702APTV34      010APTIV PLC   DRN          R$  000000003563100000000356310000000035594000000003560000000000355940000000000000000000000000000003000000000000001065000000000037915010000000000000009999123100000010000000000000BRAPTVBDR003102
012022012702ARML3       010ARMAC       ON      NM   R$  000000000202200000000021070000000001999000000000205300000000020920000000002091000000000209202327000000000000397500000000000816177000000000000000009999123100000010000000000000BRARMLACNOR1101
012022012702ARMT34      010ARCELOR     DRN          R$  000000000808800000000080880000000007775000000000789700000000078050000000007765000000000780500034000000000000002856000000000022556345000000000000009999123100000010000000000000BRARMTBDR008118
012022012702ARZZ3       010AREZZO CO   ON      NM   R$  000000000819300000000084720000000007800000000000799100000000079670000000007967000000000797812376000000000002209200000000017654281000000000000000009999123100000010000000000000BRARZZACNOR3141
012022012702ASAI3       010ASSAI       ON      NM   R$  000000000124100000000012700000000001221000000000124800000000012550000000001254000000000125518341000000000013761300000000017177040600000000000000009999123100000010000000000000BRASAIACNOR0103
012022012702ASML34      010ASML HOLD   DRN          R$  000000035450000000003545000000000343185000000034462400000003431850000000343185000000044000000011000000000000000300000000000103387247000000000000009999123100000010000000000000BRASMLBDR003105
012022012702ATOM3       010ATOMPAR     ON           R$  000000000031600000000003340000000000314000000000032100000000003180000000000318000000000032200192000000000000070200000000000022539400000000000000009999123100000010000000000000BRATOMACNOR1104
012022012702ATTB34      010ATT INC     DRN          R$  000000000444400000000044440000000004240000000000436300000000043290000000004329000000000436300233000000000000009850000000000042984403000000000000009999123100000010000000000000BRATTBBDR007139
012022012702ATVI34      010ACTIVISION  DRN          R$  000000004258100000000431430000000042312000000004268700000000424490000000042449000000004300000267000000000000000515000000000021984238000000000000009999123100000010000000000000BRATVIBDR008102
012022012702AURA33      010AURA 360    DR3          R$  000000000489500000000049100000000004700000000000477600000000047200000000004720000000000472506408000000000000151998000000000725998778000000000000009999123100000010000000000000BRAURABDR001105
012022012702AVGO34      010BROADCOM INCDRN          R$  000000000899900000000089990000000008400000000000845200000000084600000000008000000000000846000021000000000000001494000000000012627310000000000000009999123100000010000000000000BRAVGOBDR003112
012022012702AVLL3       010ALPHAVILLE  ON      NM   R$  000000000298500000000030000000000002980000000000298700000000029800000000002727000000000298900004000000000000000400000000000001194900000000000000009999123100000010000000000000BRAVLLACNOR5101
012022012702AXPB34      010AMERICAN EXPDRN          R$  000000000947000000000094900000000009259000000000928000000000092590000000009259000000000947900017000000000000000236000000000002190208000000000000009999123100000010000000000000BRAXPBBDR007140
012022012702AZEV3       010AZEVEDO     ON           R$  000000000042100000000004210000000000390000000000039900000000003990000000000399000000000040200317000000000000183700000000000073418600000000000000009999123100000010000000000000BRAZEVACNOR0119
012022012702AZEV4       010AZEVEDO     PN           R$  000000000033600000000003480000000000327000000000033600000000003350000000000334000000000033501175000000000000884000000000000297745600000000000000009999123100000010000000000000BRAZEVACNPR7119
012022012702AZUL4       010AZUL        PN      N2   R$  000000000278000000000028470000000002740000000000279900000000027590000000002757000000000275916895000000000007227800000000020235235100000000000000009999123100000010000000000000BRAZULACNPR4101
012022012702B1AX34      010BAXTER INTERDRN          R$  000000002288500000000228850000000022839000000002285000000000228390000000000000000000000000000004000000000000000004000000000000091402000000000000009999123100000010000000000000BRB1AXBDR004108
012022012702B1BL34      010BHP GROUP PLDRN          R$  000000000705700000000070570000000007057000000000705700000000070570000000006881000000000705700002000000000000000002000000000000014114000000000000009999123100000010000000000000BRB1BLBDR007102
012022012702B1CS34      010BARCLAYS PLCDRN          R$  000000000600000000000060000000000005948000000000594800000000059480000000005948000000000000000002000000000000000948000000000005639120000000000000009999123100000010000000000000BRB1CSBDR000102
012022012702B1IL34      010BILIBILI INCDRN          R$  000000000333300000000033330000000003252000000000327900000000032770000000003277000000000345500238000000000000003466000000000011365925000000000000009999123100000010000000000000BRB1ILBDR002100
012022012702B1KR34      010BAKER HUGHESDRN          R$  000000001502500000000150250000000014600000000001493300000000146000000000014400000000001502500006000000000000000013000000000000194130000000000000009999123100000010000000000000BRB1KRBDR005108
012022012702B1MR34      010BIOMARIN PHADRN          R$  000000002274200000000227420000000022735000000002273700000000227350000000000000000000000000000002000000000000001031000000000023442585000000000000009999123100000010000000000000BRB1MRBDR001100
012022012702B1NT34      010BIONTECH SE DRN          R$  000000001100100000000110660000000010359000000001064100000000104800000000010401000000001048000490000000000000036247000000000385730920000000000000009999123100000010000000000000BRB1NTBDR005100
012022012702B1PP34      010BP PLC      DRN          R$  000000000430000000000043000000000004228000000000425000000000042710000000004205000000000427100282000000000000010311000000000043821784000000000000009999123100000010000000000000BRB1PPBDR008105
012022012702B1SA34      010BANCO SANTANDRN          R$  000000000537000000000054200000000005355000000000537100000000053550000000005355000000000599100009000000000000000074000000000000397492000000000000009999123100000010000000000000BRB1SABDR004102
012022012702B1SX34      010BOSTON SCIENDRN          R$  000000002348300000000238010000000023269000000002343400000000232690000000023269000000002446100389000000000000000576000000000013498127000000000000009999123100000010000000000000BRB1SXBDR006100
012022012702B1TI34      010BRITISH AMERDRN          R$  000000000460900000000046520000000004599000000000464100000000046420000000004618000000000464200058000000000000001009000000000004683316000000000000009999123100000010000000000000BRB1TIBDR005105
012022012702B1WA34      010BORGWARNER IDRN          R$  000000002359200000000235920000000023400000000002349600000000234000000000000000000000002783700002000000000000000002000000000000046992000000000000009999123100000010000000000000BRB1WABDR006108
012022012702B2YN34      010BEYOND MEAT DRN          R$  000000000165300000000016530000000001533000000000155100000000015420000000001500000000000154200013000000000000000407000000000000631504000000000000009999123100000010000000000000BRB2YNBDR003100
012022012702B3SA3       010B3          ON      NM   R$  000000000139200000000014520000000001381000000000143300000000014460000000001445000000000144692412000000000083843000000000120185047500000000000000009999123100000010000000000000BRB3SAACNOR6120
012022012702BAAX39      010MSCI ASIA JPDRN          R$  000000000431100000000043260000000004201000000000428600000000042560000000004256000000000473600037000000000000021550000000000092370327000000000000009999123100000010000000000000BRBAAXBDR009103
012022012702BABA34      010ALIBABAGR   DRN          R$  000000000218600000000022160000000002119000000000216800000000021500000000002150000000000216202573000000000000576868000000001251177432000000000000009999123100000010000000000000BRBABABDR005101
012022012702BACW39      010MSCI ACWI   DRN          R$  000000000544500000000055800000000005265000000000529500000000052830000000005253000000000528300317000000000000132227000000000700186809000000000000009999123100000010000000000000BRBACWBDR007104
012022012702BAER39      010US AEROSPACEDRN          R$  000000000272000000000027300000000002720000000000272500000000027300000000002608000000000353800002000000000000012000000000000032700000000000000000009999123100000010000000000000BRBAERBDR003106
012022012702BAHI3       010BAHEMA      ON      MA   R$  000000000142100000000014440000000001385000000000140300000000013850000000001385000000000141500016000000000000002700000000000003789400000000000000009999123100000010000000000000BRBAHIACNOR1073
012022012702BALM3       010BAUMER      ON           R$  000000000140100000000015400000000001401000000000146000000000015400000000001421000000000169900005000000000000000600000000000000876100000000000000009999123100000010000000000000BRBALMACNOR5051
012022012702BALM4       010BAUMER      PN           R$  000000000115000000000011500000000001150000000000115000000000011500000000001121000000000117900001000000000000000200000000000000230000000000000000009999123100000010000000000000BRBALMACNPR2052
012022012702BAUH4       010EXCELSIOR   PN           R$  000000000810200000000082900000000008102000000000822700000000082900000000007807000000000829000003000000000000000300000000000002468100000000000000009999123100000010000000000000BRBAUHACNPR3116
012022012702BAZA3       010AMAZONIA    ON           R$  000000000400600000000041230000000004006000000000403500000000041230000000004005000000000412300004000000000000000400000000000001614100000000000000009999123100000010000000000000BRBAZAACNOR0175
012022012702BBAS3       010BRASIL      ON      NM   R$  000000000319900000000032710000000003195000000000323800000000032290000000003228000000000322929221000000000015457000000000050057272400000000000000009999123100000010000000000000BRBBASACNOR3303
012022012702BBDC3       010BRADESCO    ON      N1   R$  000000000184200000000018620000000001817000000000183400000000018370000000001834000000000183712952000000000007658600000000014050992300000000000000009999123100000010000000000000BRBBDCACNOR1736
012022012702BBDC4       010BRADESCO    PN      N1   R$  000000000223700000000022590000000002205000000000222900000000022280000000002228000000000222959746000000000059735200000000133172616100000000000000009999123100000010000000000000BRBBDCACNPR8736
012022012702BBRK3       010BR BROKERS  ON      NM   R$  000000000011600000000001200000000000113000000000011600000000001150000000000115000000000011600886000000000001788600000000000207893200000000000000009999123100000010000000000000BRBBRKACNOR4114
012022012702BBSE3       010BBSEGURIDADEON      NM   R$  000000000211200000000022660000000002112000000000218300000000022390000000002237000000000223921933000000000008741000000000019088951000000000000000009999123100000010000000000000BRBBSEACNOR5119
012022012702BBYY34      010BEST BUY    DRN          R$  000000005289400000000528940000000051656000000005202900000000516560000000051656000000000000000005000000000000000100000000000005202910000000000000009999123100000010000000000000BRBBYYBDR005119
012022012702BCHI39      010MSCI CHINA  DRN          R$  000000000411600000000041160000000004047000000000408400000000040640000000004050000000000409600031000000000000004146000000000016932333000000000000009999123100000010000000000000BRBCHIBDR001103
012022012702BCIR39      010FT NASDCYBERDRN          R$  000000000487000000000048700000000004870000000000487000000000048700000000004708000000000000000001000000000000000050000000000000243500000000000000009999123100000010000000000000BRBCIRBDR000101
012022012702BCSA34      010SANTANDER   DRN          R$  000000000191500000000019370000000001899000000000193000000000019260000000001900000000000193300039000000000000002111000000000004076282000000000000009999123100000010000000000000BRBCSABDR005104
012022012702BCWV39      010MSCIGLMIVOLFDRN          R$  000000000546000000000054600000000005460000000000546000000000054600000000005201000000000000000001000000000000000060000000000000327600000000000000009999123100000010000000000000BRBCWVBDR003102
012022012702BDVY39      010SELECT DIVIDDRN          R$  000000000662000000000066910000000006590000000000660100000000066010000000006100000000000660100029000000000000008852000000000058438095000000000000009999123100000010000000000000BRBDVYBDR007105
012022012702BEEF3       010MINERVA     ON      NM   R$  000000000096500000000009650000000000939000000000095000000000009520000000000951000000000095210510000000000006702000000000006367552400000000000000009999123100000010000000000000BRBEEFACNOR6112
012022012702BEEM39      010MSCI EMGMARKDRN          R$  000000000432000000000043200000000004250000000000427000000000042500000000004200000000000459700013000000000000005237000000000022363631000000000000009999123100000010000000000000BRBEEMBDR006104
012022012702BEES3       010BANESTES    ON           R$  000000000050400000000005090000000000497000000000050200000000005030000000000499000000000050300101000000000000021900000000000011007500000000000000009999123100000010000000000000BRBEESACNOR9357
012022012702BEES4       010BANESTES    PN           R$  000000000056500000000005760000000000563000000000056500000000005650000000000563000000000057100016000000000000002100000000000001188100000000000000009999123100000010000000000000BRBEESACNPR6282
012022012702BEFA39      010MSCI EAFE   DRN          R$  000000000505000000000050800000000005022000000000504100000000050220000000005022000000000000000008000000000000017199000000000086712606000000000000009999123100000010000000000000BRBEFABDR008104
012022012702BEFG39      010MSCIEAFEGROWDRN          R$  000000000526500000000052650000000005232000000000523600000000052320000000005232000000000550000004000000000000009592000000000050230378000000000000009999123100000010000000000000BRBEFGBDR005103
012022012702BEFV39      010MSCIEAFEVALUDRN          R$  000000000391400000000046210000000003914000000000461900000000046190000000003914000000000461900008000000000000017391000000000080329562000000000000009999123100000010000000000000BRBEFVBDR004103
012022012702BEGE39      010INC ESG AWARDRN          R$  000000000523200000000052320000000005194000000000519400000000051940000000005194000000000607900003000000000000001822000000000009464304000000000000009999123100000010000000000000BRBEGEBDR008103
012022012702BEGU39      010TRUSTMSCI USDRN          R$  000000000530000000000053400000000005232000000000525000000000052320000000005232000000000526700008000000000000003646000000000019141709000000000000009999123100000010000000000000BRBEGUBDR004105
012022012702BERK34      010BERKSHIRE   DRN          R$  000000000840000000000085210000000008272000000000835700000000082760000000008276000000000834701434000000000000074632000000000623716693000000000000009999123100000010000000000000BRBERKBDR002101
012022012702BERU39      010BKR MS RUSS DRN          R$  000000000515000000000051500000000005081000000000510000000000051180000000000000000000000000000013000000000000001481000000000007553977000000000000009999123100000010000000000000BRBERUBDR001102
012022012702BEWA39      010MSCIAUSTRALIDRN          R$  000000000410000000000041000000000004039000000000403900000000040390000000004039000000000434600006000000000000006680000000000026981244000000000000009999123100000010000000000000BRBEWABDR003103
012022012702BEWC39      010MSCI CANADA DRN          R$  000000000502700000000050270000000005027000000000502700000000050270000000004997000000000502700002000000000000006510000000000032725770000000000000009999123100000010000000000000BRBEWCBDR009102
012022012702BEWG39      010MSCI GERMANYDRN          R$  000000000570000000000057170000000005649000000000565800000000056490000000005649000000000609300063000000000000006117000000000034615433000000000000009999123100000010000000000000BRBEWGBDR000104
012022012702BEWJ39      010MSCI JAPAN  DRN          R$  000000000427000000000042700000000004214000000000424300000000042200000000004203000000000455000971000000000000007613000000000032302381000000000000009999123100000010000000000000BRBEWJBDR004103
012022012702BEWL39      010MSCI SWITZERDRN          R$  000000000520100000000052670000000005200000000000523800000000052390000000005209000000000523900010000000000000002112000000000011062851000000000000009999123100000010000000000000BRBEWLBDR000102
012022012702BEWT39      010MSCI TAIWAN DRN          R$  000000000565600000000056560000000005656000000000565600000000056560000000005623000000000565600002000000000000002762000000000015621872000000000000009999123100000010000000000000BRBEWTBDR003102
012022012702BEWU39      010MSCI UK     DRN          R$  000000000611800000000061180000000006094000000000611600000000061170000000006084000000000611700004000000000000005198000000000031796122000000000000009999123100000010000000000000BRBEWUBDR001103
012022012702BEWW39      010MSCI MEXICO DRN          R$  000000000642400000000064240000000006408000000000641100000000064080000000006371000000000640800003000000000000002446000000000015681968000000000000009999123100000010000000000000BRBEWWBDR007104
012022012702BEWY39      010MSCISOUTHKORDRN          R$  000000000475000000000047500000000004655000000000467200000000046880000000004670000000000571800008000000000000001246000000000005821749000000000000009999123100000010000000000000BRBEWYBDR003102
012022012702BEWZ39      010MSCI BRAZIL DRN          R$  000000000562200000000056450000000005622000000000563800000000056340000000005079000000000000000003000000000000000214000000000001206570000000000000009999123100000010000000000000BRBEWZBDR000104
012022012702BEZU39      010MSCIEUROZONEDRN          R$  000000000629900000000062990000000006256000000000628100000000062560000000006256000000000629300009000000000000010479000000000065824285000000000000009999123100000010000000000000BRBEZUBDR004104
012022012702BFDN39      010FT DJ INTERNDRN          R$  000000000335000000000033500000000003350000000000335000000000033500000000003208000000000335000001000000000000000066000000000000221100000000000000009999123100000010000000000000BRBFDNBDR003100
012022012702BFXI39      010CHINALARGECADRN          R$  000000000396000000000039600000000003921000000000392100000000039210000000003921000000000000000003000000000000001403000000000005501977000000000000009999123100000010000000000000BRBFXIBDR001102
012022012702BGRT39      010GLOBAL REIT DRN          R$  000000000506800000000053000000000004998000000000505300000000049980000000004978000000000530000017000000000000000236000000000001192659000000000000009999123100000010000000000000BRBGRTBDR008103
012022012702BGWH39      010COREDIVGROWTDRN          R$  000000000578400000000057840000000005679000000000569300000000056930000000005409000000000569300003000000000000015216000000000086624947000000000000009999123100000010000000000000BRBGWHBDR003103
012022012702BHPG34      010BHP GROUP   DRN          R$  000000003534900000000357700000000035349000000003547500000000353490000000035349000000000000000025000000000000000177000000000006279169000000000000009999123100000010000000000000BRBHPGBDR007104
012022012702BIAU39      010GOLD TRUST  DRN          R$  000000000465000000000046500000000004590000000000462400000000046270000000004620000000000462700055000000000000007081000000000032743618000000000000009999123100000010000000000000BRBIAUBDR008102
012022012702BIBB39      010ICE BIOTECH DRN          R$  000000000450000000000046250000000004471000000000451600000000044760000000004435000000000573600247000000000000002100000000000009483656000000000000009999123100000010000000000000BRBIBBBDR006105
012022012702BICL39      010BKR GL CLEANDRN          R$  000000000485500000000048550000000004782000000000479600000000047820000000004518000000000000000004000000000000000302000000000001448490000000000000009999123100000010000000000000BRBICLBDR003102
012022012702BIDI3       010BANCO INTER ON      N2   R$  000000000081600000000008800000000000816000000000085300000000008580000000000858000000000085903928000000000001042800000000000890266000000000000000009999123100000010000000000000BRBIDIACNOR3110
012022012702BIDI4       010BANCO INTER PN      N2   R$  000000000083000000000008770000000000824000000000085400000000008590000000000858000000000085919572000000000014792700000000012633822600000000000000009999123100000010000000000000BRBIDIACNPR0114
012022012702BIDI11      010BANCO INTER UNT     N2   R$  000000000251000000000026430000000002489000000000257200000000025720000000002570000000000257237372000000000015895200000000040896889500000000000000009999123100000010000000000000BRBIDICDAXX3109
012022012702BIDU34      010BAIDU INC   DRN          R$  000000007977200000000800000000000077964000000007903600000000783720000000078000000000007837200022000000000000000182000000000014384680000000000000009999123100000010000000000000BRBIDUBDR002100
012022012702BIEF39      010COREMSCIEAFEDRN          R$  000000000477900000000047860000000004741000000000474200000000047410000000004741000000000000000009000000000000004098000000000019436361000000000000009999123100000010000000000000BRBIEFBDR001104
012022012702BIEM39      010COREMSCI EMKDRN          R$  000000000525000000000052500000000005169000000000519400000000051690000000005169000000000603300027000000000000007615000000000039556549000000000000009999123100000010000000000000BRBIEMBDR007103
012022012702BIEU39      010COREMSCI EURDRN          R$  000000000497800000000050090000000004965000000000497900000000049720000000004955000000000541700021000000000000003718000000000018513689000000000000009999123100000010000000000000BRBIEUBDR000104
012022012702BIEV39      010EUROPE ETF  DRN          R$  000000000562800000000056280000000005628000000000562800000000056280000000005400000000000650000001000000000000000002000000000000011256000000000000009999123100000010000000000000BRBIEVBDR008103
012022012702BIGF39      010GLOBAL INFRADRN          R$  000000000625800000000062750000000006252000000000627200000000062520000000006207000000000730000013000000000000002685000000000016841765000000000000009999123100000010000000000000BRBIGFBDR006103
012022012702BIHI39      010USMEDICDEVICDRN          R$  000000000088400000000008920000000000870000000000087300000000008700000000000870000000000088000007000000000000019123000000000016702144000000000000009999123100000010000000000000BRBIHIBDR008105
012022012702BIIB34      010BIOGEN      DRN          R$  000000001986800000000198680000000019868000000001986800000000198680000000000000000000001986800001000000000000000380000000000007549840000000000000009999123100000010000000000000BRBIIBBDR001101
012022012702BIJH39      010CORE MIDCAP DRN          R$  000000000689200000000068920000000006799000000000679900000000067990000000006799000000000800000002000000000000015315000000000104127150000000000000009999123100000010000000000000BRBIJHBDR006105
012022012702BIJR39      010CORESMALLCAPDRN          R$  000000000690000000000071190000000006850000000000691500000000069010000000006901000000000800000020000000000000006451000000000044609307000000000000009999123100000010000000000000BRBIJRBDR005105
012022012702BILF39      010LATIN AMER40DRN          R$  000000000449500000000045440000000004495000000000454300000000045440000000000000000000000479200002000000000000000401000000000001822095000000000000009999123100000010000000000000BRBILFBDR006103
012022012702BIOM3       010BIOMM       ON      MA   R$  000000000137700000000015000000000001375000000000146900000000014440000000001430000000000144500202000000000000029200000000000042908000000000000000009999123100000010000000000000BRBIOMACNOR2109
012022012702BITO39      010CORE SP TOTADRN          R$  000000000530000000000053000000000005188000000000519500000000051880000000005188000000000521800020000000000000001963000000000010199537000000000000009999123100000010000000000000BRBITOBDR001105
012022012702BIVB39      010CORE SP 500 DRN          R$  000000000590100000000059860000000005860000000000588300000000058820000000005877000000000588200078000000000000019219000000000113075710000000000000009999123100000010000000000000BRBIVBBDR004105
012022012702BIVE39      010SP500 VALUE DRN          R$  000000000545600000000054960000000005371000000000543400000000054340000000005427000000000543400034000000000000020823000000000113170380000000000000009999123100000010000000000000BRBIVEBDR008103
012022012702BIVW39      010SP500GROWTH DRN          R$  000000000496600000000049800000000004900000000000491000000000049080000000004876000000000490800017000000000000001178000000000005785094000000000000009999123100000010000000000000BRBIVWBDR000103
012022012702BIWF39      010RUSSEL1000GRDRN          R$  000000000570000000000057000000000005700000000000570000000000057000000000004895000000000570000001000000000000002531000000000014426700000000000000009999123100000010000000000000BRBIWFBDR003103
012022012702BIWM39      010RUSSELL 2000DRN          R$  000000000530700000000053070000000005166000000000517900000000051660000000005166000000000553500006000000000000003008000000000015579016000000000000009999123100000010000000000000BRBIWMBDR009105
012022012702BIXG39      010BKR GL FIN  DRN          R$  000000000540800000000054080000000005408000000000540800000000054080000000000000000000000000000002000000000000002271000000000012281568000000000000009999123100000010000000000000BRBIXGBDR009102
012022012702BIXJ39      010GLOBALHEALTHDRN          R$  000000000595000000000059500000000005553000000000559400000000055680000000005501000000000555000006000000000000000157000000000000878373000000000000009999123100000010000000000000BRBIXJBDR003103
012022012702BIXN39      010GLOBAL TECH DRN          R$  000000000100200000000010260000000001002000000000100900000000010030000000001003000000000110000025000000000000016915000000000017074166000000000000009999123100000010000000000000BRBIXNBDR005105
012022012702BIYE39      010BKR US ENER DRN          R$  000000000628000000000063240000000006228000000000624500000000062550000000000000000000000000000011000000000000004168000000000026030826000000000000009999123100000010000000000000BRBIYEBDR002101
012022012702BIYF39      010US FINANCIALDRN          R$  000000000307100000000031440000000003032000000000304600000000030480000000002980000000000318100021000000000000007193000000000021914985000000000000009999123100000010000000000000BRBIYFBDR009106
012022012702BIYW39      010US TECHNOLOGDRN          R$  000000000157600000000015800000000001519000000000152900000000015290000000001520000000000152900235000000000000045919000000000070253470000000000000009999123100000010000000000000BRBIYWBDR004106
012022012702BKBR3       010BK BRASIL   ON      NM   R$  000000000064200000000006460000000000628000000000063400000000006370000000000636000000000063705418000000000001957600000000001242387600000000000000009999123100000010000000000000BRBKBRACNOR4103
012022012702BKNG34      010BOOKING     DRN          R$  000000000724700000000075080000000007247000000000736500000000072800000000007280000000000731000435000000000000039172000000000288515965000000000000009999123100000010000000000000BRBKNGBDR006101
012022012702BLAK34      010BLACKROCK   DRN          R$  000000007344000000000734400000000070663000000007130700000000706630000000070663000000007430000016000000000000000162000000000011551763000000000000009999123100000010000000000000BRBLAKBDR003123
012022012702BLAU3       010BLAU        ON      NM   R$  000000000340100000000034990000000003400000000000343000000000034550000000003438000000000345500671000000000000348500000000001195621700000000000000009999123100000010000000000000BRBLAUACNOR8103
012022012702BLUT3       010B TECH EQI  ON           R$  000000000013400000000001350000000000130000000000013200000000001320000000000132000000000013400127000000000000068400000000000009072600000000000000009999123100000010000000000000BRBLUTACNOR8100
012022012702BLUT4       010B TECH EQI  PN           R$  000000000006700000000000680000000000064000000000006500000000000660000000000065000000000006600376000000000000564500000000000037062500000000000000009999123100000010000000000000BRBLUTACNPR5100
012022012702BMEB4       010MERC BRASIL PN      N1   R$  000000000107800000000011210000000001078000000000111600000000011210000000001101000000000112100013000000000000002100000000000002343900000000000000009999123100000010000000000000BRBMEBACNPR5205
012022012702BMGB4       010BANCO BMG   PN      N1   R$  000000000032200000000003280000000000318000000000032200000000003210000000000321000000000032302232000000000000981100000000000315935400000000000000009999123100000010000000000000BRBMGBACNPR0103
012022012702BMOB3       010BEMOBI TECH ON      NM   R$  000000000139700000000014630000000001380000000000142700000000014350000000001425000000000143502994000000000000633500000000000904255500000000000000009999123100000010000000000000BRBMOBACNOR7100
012022012702BMTU39      010MSCIUSAMOM FDRN          R$  000000000423900000000042390000000004239000000000423900000000042390000000003945000000000424300001000000000000000001000000000000004239000000000000009999123100000010000000000000BRBMTUBDR000103
012022012702BMYB34      010BRISTOLMYERSDRN          R$  000000003445100000000344510000000034451000000003445100000000344510000000034451000000003645300001000000000000000750000000000025838250000000000000009999123100000010000000000000BRBMYBBDR000133
012022012702BNDA39      010MSCI INDIA  DRN          R$  000000000599000000000060000000000005984000000000598800000000059840000000005984000000000647700004000000000000000076000000000000455135000000000000009999123100000010000000000000BRBNDABDR004104
012022012702BOAC34      010BANK AMERICADRN          R$  000000000621600000000062910000000006124000000000618600000000061240000000006124000000000616500136000000000000030823000000000190689878000000000000009999123100000010000000000000BRBOACBDR004146
012022012702BOAS3       010BOA VISTA   ON      NM   R$  000000000056900000000005690000000000530000000000054200000000005370000000000536000000000053704066000000000000949300000000000515311200000000000000009999123100000010000000000000BRBOASACNOR6102
012022012702BOBR4       010BOMBRIL     PN           R$  000000000015700000000001610000000000156000000000015700000000001600000000000159000000000016000100000000000000062700000000000009900800000000000000009999123100000010000000000000BRBOBRACNPR3128
012022012702BOEF39      010BKR SP100   DRN          R$  000000000613800000000061380000000006138000000000613800000000061380000000005008000000000000000001000000000000000001000000000000006138000000000000009999123100000010000000000000BRBOEFBDR009102
012022012702BOEI34      010BOEING      DRN          R$  000000010500000000001050000000000102375000000010314900000001023750000000102375000000011000000007000000000000000107000000000011037028000000000000009999123100000010000000000000BRBOEIBDR003132
012022012702BONY34      010BNY MELLON  DRN          R$  000000003156000000000323520000000031232000000003181300000000315010000000031501000000000000000088000000000000002313000000000073584748000000000000009999123100000010000000000000BRBONYBDR001125
012022012702BOXP34      010BOSTON PROP DRN          R$  000000000609600000000061080000000005937000000000595700000000059370000000005937000000000665000006000000000000000346000000000002061287000000000000009999123100000010000000000000BRBOXPBDR008126
012022012702BPAC3       010BTGP BANCO  ON      N2   R$  000000000131900000000014390000000001319000000000139900000000014030000000001320000000000143500272000000000000039200000000000054847300000000000000009999123100000010000000000000BRBPACACNOR7127
012022012702BPAC5       010BTGP BANCO  PNA     N2   R$  000000000050600000000005100000000000476000000000050300000000005000000000000491000000000051000410000000000000083800000000000042175300000000000000009999123100000010000000000000BRBPACACNPA0127
012022012702BPAC11      010BTGP BANCO  UNT     N2   R$  000000000234100000000024480000000002332000000000240500000000024020000000002400000000000240246809000000000023149100000000055683986200000000000000009999123100000010000000000000BRBPACUNT006112
012022012702BPAN4       010BANCO PAN   PN      N1   R$  000000000103800000000011020000000001035000000000106500000000010510000000001051000000000105213355000000000007225200000000007697753900000000000000009999123100000010000000000000BRBPANACNPR1112
012022012702BQUA39      010MSCIUSQUAL FDRN          R$  000000000440100000000047150000000004401000000000467200000000046740000000004405000000000000000005000000000000002220000000000010373092000000000000009999123100000010000000000000BRBQUABDR001103
012022012702BRAP3       010BRADESPAR   ON      N1   R$  000000000243000000000024560000000002414000000000243100000000024380000000002438000000000244300633000000000000192000000000000466832800000000000000009999123100000010000000000000BRBRAPACNOR5142
012022012702BRAP4       010BRADESPAR   PN      N1   R$  000000000274900000000027500000000002660000000000268900000000027000000000002698000000000270011010000000000003420300000000009199113700000000000000009999123100000010000000000000BRBRAPACNPR2142
012022012702BRBI11      010BR PARTNERS UNT     N2   R$  000000000170300000000018230000000001672000000000174000000000017500000000001730000000000175001740000000000000542100000000000943297200000000000000009999123100000010000000000000BRBRBICDAM10100
012022012702BRFS3       010BRF SA      ON      NM   R$  000000000230000000000023650000000002275000000000231900000000023100000000002309000000000231012354000000000004819900000000011182149200000000000000009999123100000010000000000000BRBRFSACNOR8120
012022012702BRGE3       010ALFA CONSORCON           R$  000000000064200000000007000000000000642000000000068600000000007000000000000608000000000069200006000000000000000900000000000000617400000000000000009999123100000010000000000000BRBRGEACNOR6203
012022012702BRGE8       010ALFA CONSORCPND ED       R$  000000000085000000000009490000000000850000000000089900000000009490000000000850000000000094900002000000000000000200000000000000179900000000000000009999123100000010000000000000BRBRGEACNPD3217
012022012702BRIT3       010BRISANET    ON      NM   R$  000000000042300000000004530000000000422000000000043900000000004400000000000440000000000045002216000000000000815200000000000358347900000000000000009999123100000010000000000000BRBRITACNOR0100
012022012702BRIV4       010ALFA INVEST PN  EJ       R$  000000000073800000000007470000000000738000000000074100000000007470000000000747000000000079300003000000000000000300000000000000222300000000000000009999123100000010000000000000BRBRIVACNPR3214
012022012702BRKM3       010BRASKEM     ON      N1   R$  000000000475900000000048390000000004553000000000464500000000045800000000004580000000000467000199000000000000044700000000000207675700000000000000009999123100000010000000000000BRBRKMACNOR1118
012022012702BRKM5       010BRASKEM     PNA     N1   R$  000000000480000000000048920000000004571000000000468200000000046510000000004651000000000465231495000000000008718900000000040822321300000000000000009999123100000010000000000000BRBRKMACNPA4119
012022012702BRML3       010BR MALLS PARON      NM   R$  000000000093700000000009490000000000921000000000093500000000009400000000000940000000000094133209000000000030063800000000028135389500000000000000009999123100000010000000000000BRBRMLACNOR9116
012022012702BRPR3       010BR PROPERT  ON      NM   R$  000000000071400000000007280000000000708000000000071800000000007190000000000719000000000072110920000000000001914600000000001376467300000000000000009999123100000010000000000000BRBRPRACNOR9121
012022012702BRSR3       010BANRISUL    ON      N1   R$  000000000119800000000012000000000001182000000000119200000000011870000000001181000000000118700035000000000000006000000000000007156200000000000000009999123100000010000000000000BRBRSRACNOR3176
012022012702BRSR6       010BANRISUL    PNB     N1   R$  000000000107200000000010950000000001070000000000108100000000010770000000001077000000000108003217000000000001552100000000001679151200000000000000009999123100000010000000000000BRBRSRACNPB4179
012022012702BSLI3       010BRB BANCO   ON           R$  000000000255300000000025530000000002501000000000252700000000025030000000002503000000000277800006000000000000000600000000000001516300000000000000009999123100000010000000000000BRBSLIACNOR5185
012022012702BSLI4       010BRB BANCO   PN           R$  000000000162500000000017000000000001620000000000163800000000016500000000001610000000000168000009000000000000000900000000000001474500000000000000009999123100000010000000000000BRBSLIACNPR2185
012022012702BSLV39      010SILVER TRUSTDRN          R$  000000000389000000000038900000000003757000000000378600000000037760000000003765000000000379204609000000000000024585000000000093079345000000000000009999123100000010000000000000BRBSLVBDR002100
012022012702BSOX39      010BKR SEMICONDDRN          R$  000000000631600000000063160000000006132000000000630400000000061320000000005708000000000000000002000000000000000016000000000000100872000000000000009999123100000010000000000000BRBSOXBDR002102
012022012702BSUS39      010ESGMSCIUSA LDRN          R$  000000000536000000000053600000000005149000000000514900000000051490000000004688000000000000000002000000000000002502000000000012883220000000000000009999123100000010000000000000BRBSUSBDR009103
012022012702BUSM39      010MSCI US MVOLDRN          R$  000000000498800000000049880000000004976000000000498000000000049800000000004931000000000582500004000000000000008026000000000039975540000000000000009999123100000010000000000000BRBUSMBDR002105
012022012702BUSR39      010CORE US REITDRN          R$  000000000554400000000055440000000005486000000000550300000000055000000000005309000000000551200005000000000000000072000000000000396230000000000000009999123100000010000000000000BRBUSRBDR001103
012022012702BVLU39      010MSCIUSVALUEFDRN          R$  000000000496200000000057420000000004962000000000565900000000056600000000004960000000000000000006000000000000003564000000000020170246000000000000009999123100000010000000000000BRBVLUBDR008103
012022012702BXTC39      010EXPON TECHNLDRN          R$  000000000516500000000051650000000005105000000000512600000000051050000000004911000000000615100005000000000000000125000000000000640789000000000000009999123100000010000000000000BRBXTCBDR005102
012022012702C1AH34      010CARDINAL HEADRN          R$  000000002811300000000281130000000028112000000002811200000000281120000000022703000000003019000003000000000000000301000000000008462012000000000000009999123100000010000000000000BRC1AHBDR006109
012022012702C1BS34      010VIACOMCBS   DRN          R$  000000001706800000000170680000000017068000000001706800000000170680000000016640000000001706800001000000000000000130000000000002218840000000000000009999123100000010000000000000BRC1BSBDR001109
012022012702C1CI34      010CROWN CASTLEDRN          R$  000000002373600000000237360000000023300000000002365500000000233000000000000000000000000000000002000000000000000977000000000023111592000000000000009999123100000010000000000000BRC1CIBDR000108
012022012702C1CL34      010CARNIVAL CORDRN          R$  000000001100000000000110100000000010297000000001069200000000103490000000010349000000001130000017000000000000001419000000000015172950000000000000009999123100000010000000000000BRC1CLBDR004101
012022012702C1DW34      010CDW CORP    DRN          R$  000000000489100000000048910000000004891000000000489100000000048910000000000000000000000000000001000000000000000022000000000000107602000000000000009999123100000010000000000000BRC1DWBDR009105
012022012702C1GP34      010COSTAR GROUPDRN          R$  000000000035200000000003620000000000352000000000035500000000003550000000000355000000000037000007000000000000031365000000000011134641000000000000009999123100000010000000000000BRC1GPBDR006101
012022012702C1HI34      010CHINA PETROLDRN          R$  000000000440000000000047290000000004400000000000466800000000046620000000004662000000000470000007000000000000002230000000000010409680000000000000009999123100000010000000000000BRC1HIBDR009102
012022012702C1IC34      010CIGNA CORP  DRN          R$  000000003116800000000311680000000030848000000003091800000000309160000000000000000000003091600003000000000000000284000000000008780832000000000000009999123100000010000000000000BRC1ICBDR000105
012022012702C1MG34      010CHIPOTLE MEXDRN          R$  000000003662900000000366670000000036629000000003665400000000366670000000000000000000000000000003000000000000000003000000000000109963000000000000009999123100000010000000000000BRC1MGBDR003100
012022012702C1MS34      010CMS ENERGY CDRN          R$  000000001629900000000162990000000016299000000001629900000000162990000000000000000000000000000001000000000000000001000000000000016299000000000000009999123100000010000000000000BRC1MSBDR008108
012022012702C1NS34      010CELANESE CORDRN          R$  000000004333400000000433870000000043334000000004336000000000433870000000000000000000000000000002000000000000000002000000000000086721000000000000009999123100000010000000000000BRC1NSBDR006108
012022012702C1OU34      010COUPA SOFTWADRN          R$  000000000220600000000023000000000002160000000000216000000000021600000000002160000000000260000019000000000000002691000000000005813704000000000000009999123100000010000000000000BRC1OUBDR000100
012022012702C1SU34      010CREDIT SUISSDRN          R$  000000000254900000000025490000000002480000000000250000000000025010000000002490000000000250100014000000000000000253000000000000632527000000000000009999123100000010000000000000BRC1SUBDR001102
012022012702C1TA34      010CINTAS CORP DRN          R$  000000004105000000000410500000000041050000000004105000000000410500000000000000000000000000000001000000000000000070000000000002873500000000000000009999123100000010000000000000BRC1TABDR001105
012022012702C1TV34      010CORTEVA INC DRN          R$  000000000631200000000063120000000006312000000000631200000000063120000000006312000000000000000001000000000000001500000000000009468000000000000000009999123100000010000000000000BRC1TVBDR007105
012022012702C2OI34      010COINBASEGLOBDRN          R$  000000000395900000000039600000000003660000000000375900000000036870000000003660000000000370000111000000000000010364000000000038964883000000000000009999123100000010000000000000BRC2OIBDR003100
012022012702CAJI34      010CANON INC   DRN          R$  000000001320800000000132080000000013208000000001320800000000132080000000000000000000000000000001000000000000000002000000000000026416000000000000009999123100000010000000000000BRCAJIBDR009105
012022012702CAMB3       010CAMBUCI     ON           R$  000000000046000000000004620000000000447000000000045300000000004510000000000449000000000045100130000000000000022900000000000010390200000000000000009999123100000010000000000000BRCAMBACNOR4119
012022012702CAML3       010CAMIL       ON      NM   R$  000000000089600000000009060000000000895000000000089900000000009010000000000900000000000090105138000000000001402700000000001261175400000000000000009999123100000010000000000000BRCAMLACNOR3117
012022012702CAPH34      010CAPRI HOLDI DRN          R$  000000003063000000000306300000000030053000000003039900000000300530000000030053000000000000000002000000000000000025000000000000759980000000000000009999123100000010000000000000BRCAPHBDR008100
012022012702CARD3       010CSU CARDSYSTON      NM   R$  000000000136600000000014150000000001340000000000136500000000013850000000001372000000000138501904000000000000277100000000000378491800000000000000009999123100000010000000000000BRCARDACNOR9125
012022012702CASH3       010MELIUZ      ON      NM   R$  000000000029700000000003140000000000292000000000030100000000002950000000000295000000000029621664000000000064559900000000019475594900000000000000009999123100000010000000000000BRCASHACNOR8102
012022012702CATP34      010CATERPILLAR DRN ED       R$  000000000732900000000073300000000007139000000000717800000000071390000000007139000000000749100033000000000000003238000000000023244206000000000000009999123100000010000000000000BRCATPBDR003143
012022012702CBAV3       010CBA         ON      NM   R$  000000000168700000000016870000000001615000000000165300000000016510000000001650000000000166009208000000000002708300000000004478112300000000000000009999123100000010000000000000BRCBAVACNOR5100
012022012702CBEE3       010AMPLA ENERG ON           R$  000000000230100000000023010000000002301000000000230100000000023010000000002300000000000242000001000000000000000100000000000000230100000000000000009999123100000010000000000000BRCBEEACNOR3156
012022012702CCRO3       010CCR SA      ON      NM   R$  000000000124900000000012830000000001242000000000126500000000012750000000001272000000000127529226000000000013618400000000017239086400000000000000009999123100000010000000000000BRCCROACNOR2140
012022012702CEAB3       010CEA MODAS   ON      NM   R$  000000000060100000000006420000000000601000000000062900000000006280000000000627000000000062809579000000000004181600000000002631661900000000000000009999123100000010000000000000BRCEABACNOR1101
012022012702CEBR6       010CEB         PNB          R$  000000000148900000000014900000000001415000000000146300000000014650000000001425000000000146700032000000000000012500000000000018287900000000000000009999123100000010000000000000BRCEBRACNPB6120
012022012702CEDO4       010CEDRO       PN      N1   R$  000000000060000000000006110000000000566000000000060100000000005850000000000567000000000058500016000000000000003200000000000001926200000000000000009999123100000010000000000000BRCEDOACNPR5128
012022012702CEEB3       010COELBA      ON           R$  000000000337000000000033700000000003370000000000337000000000033700000000003200000000000335000001000000000000000200000000000000674000000000000000009999123100000010000000000000BRCEEBACNOR3184
012022012702CEED3       010CEEE-D      ON           R$  000000000498700000000055000000000004987000000000532800000000055000000000004200000000000629700003000000000000000300000000000001598600000000000000009999123100000010000000000000BRCEEDACNOR9103
012022012702CEPE5       010CELPE       PNA          R$  000000000250900000000025090000000002505000000000250700000000025050000000002502000000000274700006000000000000000600000000000001504300000000000000009999123100000010000000000000BRCEPEACNPA6167
012022012702CEPE6       010CELPE       PNB          R$  000000000265100000000026510000000002607000000000262900000000026070000000002610000000000285000002000000000000000200000000000000525800000000000000009999123100000010000000000000BRCEPEACNPB4167
012022012702CESP3       010CESP        ON      N1   R$  000000000224700000000022980000000002247000000000228300000000022860000000002245000000000228600019000000000000002600000000000005936700000000000000009999123100000010000000000000BRCESPACNOR3171
012022012702CESP5       010CESP        PNA     N1   R$  000000000254000000000027350000000002540000000000259000000000025670000000002569000000000264900012000000000000001200000000000003108200000000000000009999123100000010000000000000BRCESPACNPA6118
012022012702CESP6       010CESP        PNB     N1   R$  000000000221500000000023000000000002205000000000226200000000022650000000002262000000000226512691000000000002031500000000004595461300000000000000009999123100000010000000000000BRCESPACNPB4130
012022012702CGAS3       010COMGAS      ON           R$  000000001360000000000136000000000013600000000001360000000000136000000000013201000000001380000001000000000000000100000000000001360000000000000000009999123100000010000000000000BRCGASACNOR0154
012022012702CGAS5       010COMGAS      PNA          R$  000000001300000000000131830000000012862000000001299000000000128620000000012861000000001300000044000000000000008000000000000103923200000000000000009999123100000010000000000000BRCGASACNPA3151
012022012702CGRA3       010GRAZZIOTIN  ON           R$  000000000389400000000039000000000003845000000000389900000000039000000000003841000000000390000099000000000000011700000000000045623400000000000000009999123100000010000000000000BRCGRAACNOR2074
012022012702CGRA4       010GRAZZIOTIN  PN           R$  000000000386700000000040500000000003867000000000396100000000039000000000003900000000000393000055000000000000008200000000000032481100000000000000009999123100000010000000000000BRCGRAACNPR9074
012022012702CHCM34      010CHARTER COMMDRN          R$  000000000493500000000051300000000004900000000000505500000000050420000000005042000000000509500030000000000000033367000000000168670640000000000000009999123100000010000000000000BRCHCMBDR001101
012022012702CHVX34      010CHEVRON     DRN          R$  000000000721000000000074060000000007172000000000727000000000072740000000007274000000000731600606000000000000024488000000000178027916000000000000009999123100000010000000000000BRCHVXBDR008144
012022012702CIEL3       010CIELO       ON      NM   R$  000000000022000000000002260000000000214000000000021900000000002150000000000215000000000021612195000000000036846500000000008092455700000000000000009999123100000010000000000000BRCIELACNOR3148
012022012702CLSA3       010CLEARSALE   ON      NM   R$  000000000101300000000010840000000000985000000000104900000000010700000000001069000000000107009101000000000002125700000000002230389500000000000000009999123100000010000000000000BRCLSAACNOR0100
012022012702CLSC3       010CELESC      ON      N2   R$  000000000624900000000062490000000006199000000000620400000000062000000000005830000000000639500007000000000000001000000000000006204600000000000000009999123100000010000000000000BRCLSCACNOR6139
012022012702CLSC4       010CELESC      PN      N2   R$  000000000639000000000064440000000006390000000000643300000000064400000000006398000000000644000021000000000000002500000000000016084900000000000000009999123100000010000000000000BRCLSCACNPR3118
012022012702CMCS34      010COMCAST     DRN          R$  000000000520000000000053760000000004854000000000514100000000051750000000005175000000000521600264000000000000189843000000000975998851000000000000009999123100000010000000000000BRCMCSBDR008142
012022012702CMIG3       010CEMIG       ON      N1   R$  000000000174500000000017910000000001742000000000177500000000017750000000001775000000000178201712000000000000349200000000000619943400000000000000009999123100000010000000000000BRCMIGACNOR6228
012022012702CMIG4       010CEMIG       PN      N1   R$  000000000129800000000013210000000001290000000000130900000000013100000000001310000000000131116001000000000007224500000000009463202800000000000000009999123100000010000000000000BRCMIGACNPR3229
012022012702CMIN3       010CSNMINERACAOON      N2   R$  000000000073100000000007390000000000707000000000071500000000007120000000000711000000000071211246000000000009175200000000006565657600000000000000009999123100000010000000000000BRCMINACNOR2103
012022012702CNIC34      010CANAD NATIONDRN          R$  000000003222400000000322240000000032224000000003222400000000322240000000028000000000000000000001000000000000000003000000000000096672000000000000009999123100000010000000000000BRCNICBDR007110
012022012702COCA34      010COCA COLA   DRN          R$  000000000534800000000054990000000005320000000000539200000000053560000000005356000000000539301305000000000000048681000000000262498055000000000000009999123100000010000000000000BRCOCABDR002142
012022012702COCE5       010COELCE      PNA          R$  000000000536800000000055000000000005368000000000548100000000055000000000005452000000000550000025000000000000006500000000000035627400000000000000009999123100000010000000000000BRCOCEACNPA3142
012022012702COGN3       010COGNA ON    ON      NM   R$  000000000025800000000002610000000000251000000000025500000000002530000000000252000000000025312596000000000032635600000000008329193200000000000000009999123100000010000000000000BRCOGNACNOR2102
012022012702COLG34      010COLGATE     DRN          R$  000000000630000000000064630000000006300000000000636500000000063630000000006363000000000645800006000000000000002223000000000014150235000000000000009999123100000010000000000000BRCOLGBDR000143
012022012702COPH34      010COPHILLIPS  DRN          R$  000000001183000000000121240000000011830000000001202200000000120330000000012033000000001240000225000000000000002751000000000033073729000000000000009999123100000010000000000000BRCOPHBDR009141
012022012702COTY34      010COTY INC    DRN          R$  000000000227000000000022700000000002177000000000218400000000021770000000002177000000000226000005000000000000001758000000000003840829000000000000009999123100000010000000000000BRCOTYBDR006116
012022012702COWC34      010COSTCO      DRN          R$  000000000656500000000066840000000006508000000000654400000000065080000000006508000000000670000169000000000000024346000000000159322909000000000000009999123100000010000000000000BRCOWCBDR006126
012022012702CPFE3       010CPFL ENERGIAON      NM   R$  000000000285600000000028690000000002795000000000282300000000028300000000002828000000000283011455000000000002350400000000006637503900000000000000009999123100000010000000000000BRCPFEACNOR0133
012022012702CPLE3       010COPEL       ON      N2   R$  000000000060500000000006100000000000600000000000060500000000006050000000000605000000000060701417000000000000670000000000000405542100000000000000009999123100000010000000000000BRCPLEACNOR8145
012022012702CPLE5       010COPEL       PNA     N2   R$  000000000310000000000031000000000003100000000000310000000000031000000000003070000000000357000001000000000000000100000000000000310000000000000000009999123100000010000000000000BRCPLEACNPA1142
012022012702CPLE6       010COPEL       PNB     N2   R$  000000000069200000000007060000000000691000000000069900000000007020000000000701000000000070311303000000000013674100000000009567495600000000000000009999123100000010000000000000BRCPLEACNPB9142
012022012702CPLE11      010COPEL       UNT     N2   R$  000000000335400000000034210000000003348000000000339100000000034210000000003401000000000342402025000000000000263700000000000894290300000000000000009999123100000010000000000000BRCPLECDAM13103
012022012702CRFB3       010CARREFOUR BRON      NM   R$  000000000158000000000016580000000001566000000000162200000000016550000000001655000000000165625370000000000010839500000000017587354600000000000000009999123100000010000000000000BRCRFBACNOR2110
012022012702CRIP34      010CTRIPCOM    DRN          R$  000000001374900000000137490000000013276000000001329000000000132760000000012900000000001327600002000000000000000134000000000001780876000000000000009999123100000010000000000000BRCRIPBDR000100
012022012702CRPG5       010CRISTAL     PNA          R$  000000000574800000000058420000000005611000000000570300000000057520000000005751000000000579900075000000000000010100000000000057608100000000000000009999123100000010000000000000BRCRPGACNPA3114
012022012702CRPG6       010CRISTAL     PNB          R$  000000000584900000000058490000000005651000000000575000000000056510000000005663000000000579900002000000000000000200000000000001150000000000000000009999123100000010000000000000BRCRPGACNPB1114
012022012702CSAN3       010COSAN       ON      NM   R$  000000000226100000000023360000000002261000000000231100000000023360000000002335000000000233628297000000000009507300000000021978178700000000000000009999123100000010000000000000BRCSANACNOR6122
012022012702CSCO34      010CISCO       DRN          R$  000000000596600000000060730000000005895000000000591700000000058950000000005895000000000730000043000000000000005777000000000034182719000000000000009999123100000010000000000000BRCSCOBDR004145
012022012702CSED3       010CRUZEIRO EDUON      NM   R$  000000000062300000000006500000000000612000000000062900000000006340000000000634000000000064004322000000000001267700000000000797648600000000000000009999123100000010000000000000BRCSEDACNOR9101
012022012702CSMG3       010COPASA      ON      NM   R$  000000000127300000000012890000000001272000000000127900000000012810000000001279000000000128104101000000000001046200000000001338774800000000000000009999123100000010000000000000BRCSMGACNOR5163
012022012702CSNA3       010SID NACIONALON           R$  000000000263300000000026720000000002575000000000261400000000026180000000002618000000000261923032000000000011813300000000030883341100000000000000009999123100000010000000000000BRCSNAACNOR6255
012022012702CTGP34      010CITIGROUP   DRN          R$  000000000584700000000058700000000005757000000000580200000000057570000000005757000000000579900006000000000000000726000000000004212600000000000000009999123100000010000000000000BRCTGPBDR000144
012022012702CTKA4       010KARSTEN     PN           R$  000000000104600000000013800000000001025000000000113000000000012530000000001120000000000125300056000000000000011600000000000013116000000000000000009999123100000010000000000000BRCTKAACNPR7043
012022012702CTNM3       010COTEMINAS   ON           R$  000000000083800000000008380000000000838000000000083800000000008380000000000838000000000088900001000000000000000100000000000000083800000000000000009999123100000010000000000000BRCTNMACNOR9130
012022012702CTNM4       010COTEMINAS   PN           R$  000000000037400000000003850000000000358000000000036700000000003710000000000370000000000038800031000000000000012900000000000004746200000000000000009999123100000010000000000000BRCTNMACNPR6129
012022012702CTSA3       010SANTANENSE  ON           R$  000000000018300000000001920000000000182000000000018400000000001840000000000184000000000018500191000000000000089700000000000016554400000000000000009999123100000010000000000000BRCTSAACNOR3060
012022012702CTSA4       010SANTANENSE  PN           R$  000000000012400000000001270000000000124000000000012500000000001250000000000124000000000012500054000000000000061300000000000007667500000000000000009999123100000010000000000000BRCTSAACNPR0060
012022012702CTSH34      010COGNIZANT   DRN          R$  000000004435200000000443520000000044352000000004435200000000443520000000000000000000000000000002000000000000000002000000000000088704000000000000009999123100000010000000000000BRCTSHBDR002119
012022012702CURY3       010CURY S/A    ON      NM   R$  000000000079300000000008040000000000787000000000079600000000007950000000000794000000000079502962000000000000990700000000000788672400000000000000009999123100000010000000000000BRCURYACNOR3102
012022012702CVCB3       010CVC BRASIL  ON      NM   R$  000000000136700000000014040000000001356000000000137800000000013830000000001382000000000138314391000000000011287900000000015564907500000000000000009999123100000010000000000000BRCVCBACNOR1114
012022012702CVSH34      010CVS HEALTH  DRN ED       R$  000000002853100000000289000000000028531000000002867200000000287050000000028705000000002906600005000000000000000269000000000007713028000000000000009999123100000010000000000000BRCVSHBDR008123
012022012702CXSE3       010CAIXA SEGURION      NM   R$  000000000080700000000008330000000000805000000000081300000000008160000000000816000000000081712216000000000005245500000000004267351700000000000000009999123100000010000000000000BRCXSEACNOR7101
012022012702CYRE3       010CYRELA REALTON      NM   R$  000000000171500000000017430000000001711000000000172800000000017350000000001734000000000173522638000000000006882200000000011897623500000000000000009999123100000010000000000000BRCYREACNOR7136
012022012702D1DG34      010DATADOG INC DRN          R$  000000000726600000000072660000000006989000000000704800000000069890000000000000000000000698900005000000000000001349000000000009508404000000000000009999123100000010000000000000BRD1DGBDR001100
012022012702D1EL34      010DELL TECHNOLDRN          R$  000000002958000000000301500000000029580000000003005200000000300890000000029600000000003300000005000000000000000034000000000001021780000000000000009999123100000010000000000000BRD1ELBDR009101
012022012702D1EX34      010DEXCOM INC  DRN          R$  000000000421600000000042160000000004179000000000420900000000041790000000000000000000000417900003000000000000016041000000000067523435000000000000009999123100000010000000000000BRD1EXBDR004100
012022012702D1HI34      010DR HORTON INDRN          R$  000000004528800000000453080000000045288000000004529800000000453080000000000000000000000000000002000000000000000002000000000000090596000000000000009999123100000010000000000000BRD1HIBDR008108
012022012702D1LR34      010DIGITAL REALDRN          R$  000000001956100000000195610000000019561000000001956100000000195610000000019561000000002470400002000000000000000800000000000015648800000000000000009999123100000010000000000000BRD1LRBDR001108
012022012702D1OC34      010DOCUSIGN INCDRN          R$  000000000312900000000031960000000002994000000000304200000000030170000000003017000000000320000016000000000000006717000000000020436213000000000000009999123100000010000000000000BRD1OCBDR007100
012022012702D1OW34      010DOW INC     DRN          R$  000000000809700000000081440000000008084000000000809600000000080840000000008084000000000902000003000000000000000401000000000003246497000000000000009999123100000010000000000000BRD1OWBDR005105
012022012702D1RE34      010DUKE REALTY DRN          R$  000000003049000000000304900000000029915000000003048900000000299150000000000000000000000000000002000000000000000764000000000023293785000000000000009999123100000010000000000000BRD1REBDR006108
012022012702D1VN34      010DEVON ENERGYDRN          R$  000000002831400000000290000000000027659000000002824500000000280010000000026500000000002800100015000000000000000780000000000022031189000000000000009999123100000010000000000000BRD1VNBDR009109
012022012702D2KN34      010DRAFTKINGS  DRN          R$  000000000187500000000018930000000001875000000000188800000000018840000000000000000000000000000006000000000000008020000000000015145200000000000000009999123100000010000000000000BRD2KNBDR000100
012022012702D2PZ34      010DOMINOSPIZZADRN          R$  000000000462500000000046530000000004625000000000463900000000046530000000004625000000000600000003000000000000000004000000000000018556000000000000009999123100000010000000000000BRD2PZBDR003102
012022012702DASA3       010DASA        ON      NM   R$  000000000304300000000032060000000002875000000000291100000000029480000000002948000000000294903897000000000004689100000000013652833900000000000000009999123100000010000000000000BRDASAACNOR1121
012022012702DBAG34      010DEUTSCHE AK DRN          R$  000000000718900000000071890000000007090000000000709300000000070900000000007090000000000000000003000000000000001029000000000007299561000000000000009999123100000010000000000000BRDBAGBDR008100
012022012702DCVY34      010DISCOVERY INDRN A        R$  000000001330000000000133000000000013300000000001330000000000133000000000013300000000001594000001000000000000000020000000000000266000000000000000009999123100000010000000000000BRDCVYBDR005100
012022012702DCVY35      010DISCOVERY INDRN C        R$  000000001287400000000128740000000012874000000001287400000000128740000000013028000000000000000001000000000000000003000000000000038622000000000000009999123100000010000000000000BRDCVYBDR013100
012022012702DDNB34      010DUPONT N INCDRN          R$  000000004187400000000418740000000041874000000004187400000000418740000000026000000000000000000001000000000000000001000000000000041874000000000000009999123100000010000000000000BRDDNBBDR008110
012022012702DEAI34      010DELTA       DRN          R$  000000002102000000000210200000000020645000000002064600000000206450000000020645000000002200000002000000000000000231000000000004769370000000000000009999123100000010000000000000BRDEAIBDR008116
012022012702DEEC34      010DEERE CO    DRN          R$  000000010156300000001027510000000101250000000010176200000001012500000000101250000000011000000005000000000000000129000000000013127326000000000000009999123100000010000000000000BRDEECBDR003111
012022012702DEOP34      010DIAGEO PL   DRN          R$  000000010744500000001094040000000107445000000010832400000001083570000000108357000000000000000004000000000000000211000000000022856543000000000000009999123100000010000000000000BRDEOPBDR004104
012022012702DESK3       010DESKTOP     ON      NM   R$  000000000158000000000017330000000001580000000000166200000000017330000000001723000000000173301260000000000000584600000000000972089900000000000000009999123100000010000000000000BRDESKACNOR2100
012022012702DEXP3       010DEXXOS PAR  ON      N1   R$  000000000092300000000009490000000000903000000000091800000000009030000000000903000000000091001457000000000000403700000000000370875800000000000000009999123100000010000000000000BRDEXPACNOR1101
012022012702DEXP4       010DEXXOS PAR  PN      N1   R$  000000000076500000000007650000000000765000000000076500000000007650000000000747000000000077000005000000000000001000000000000000765000000000000000009999123100000010000000000000BRDEXPACNPR8101
012022012702DGCO34      010DOLLAR GENERDRN          R$  000000005579700000000557970000000055797000000005579700000000557970000000053802000000005579700001000000000000000050000000000002789850000000000000009999123100000010000000000000BRDGCOBDR007111
012022012702DHER34      010DANAHER CORPDRN          R$  000000003635000000000363500000000036325000000003633400000000363250000000036325000000004410000002000000000000001080000000000039240750000000000000009999123100000010000000000000BRDHERBDR004127
012022012702DIRR3       010DIRECIONAL  ON      NM   R$  000000000128400000000013430000000001282000000000132700000000013380000000001338000000000133905167000000000002843400000000003774090900000000000000009999123100000010000000000000BRDIRRACNOR0114
012022012702DISB34      010WALT DISNEY DRN          R$  000000000482500000000049780000000004804000000000490100000000048800000000004880000000000490402946000000000000141984000000000695988457000000000000009999123100000010000000000000BRDISBBDR006115
012022012702DMMO3       010DOMMO       ON           R$  000000000007600000000000920000000000075000000000008300000000000900000000000090000000000009107912000000000038508800000000003234413800000000000000009999123100000010000000000000BRDMMOACNOR0105
012022012702DMVF3       010D1000VFARMA ON      NM   R$  000000000040000000000004120000000000399000000000040700000000004040000000000404000000000041200342000000000000124300000000000050700900000000000000009999123100000010000000000000BRDMVFACNOR9100
012022012702DOHL4       010DOHLER      PN           R$  000000000060000000000006020000000000582000000000059100000000005910000000000590000000000060000024000000000000003300000000000001953200000000000000009999123100000010000000000000BRDOHLACNPR9065
012022012702DOTZ3       010DOTZ SA     ON      NM   R$  000000000027800000000002850000000000275000000000027800000000002850000000000277000000000028500249000000000000064700000000000018050800000000000000009999123100000010000000000000BRDOTZACNOR7100
012022012702DXCO3       010DEXCO       ON      NM   R$  000000000146200000000015170000000001446000000000149600000000015170000000001512000000000151708626000000000002767700000000004143164000000000000000009999123100000010000000000000BRDXCOACNOR8101
012022012702E1DU34      010NEW ORIENTALDRN          R$  000000000005000000000000500000000000046000000000004700000000000460000000000045000000000004600178000000000000681580000000000032155038000000000000009999123100000010000000000000BRE1DUBDR001101
012022012702E1NI34      010ENEL AMERICADRN ED       R$  000000000317400000000031740000000003136000000000313600000000031360000000003136000000000329900003000000000000000733000000000002299119000000000000009999123100000010000000000000BRE1NIBDR005103
012022012702E1OG34      010EOG RESOURCEDRN          R$  000000002958500000000295850000000029378000000002948100000000294500000000000000000000003712500003000000000000000242000000000007134460000000000000009999123100000010000000000000BRE1OGBDR007110
012022012702E1QN34      010EQUINOR ASA DRN          R$  000000000763500000000076350000000007529000000000759500000000075960000000000000000000000759600007000000000000004266000000000032400294000000000000009999123100000010000000000000BRE1QNBDR008105
012022012702E1QR34      010EQUITY RESIDDRN          R$  000000002378400000000237840000000023545000000002360400000000235950000000000000000000002359500006000000000000000037000000000000873374000000000000009999123100000010000000000000BRE1QRBDR009107
012022012702E1RI34      010ERICSSON LM DRN          R$  000000000324300000000032730000000003243000000000325700000000032600000000003260000000000350000005000000000000003759000000000012245937000000000000009999123100000010000000000000BRE1RIBDR006102
012022012702E1SS34      010ESSEX PROPERDRN          R$  000000001792000000000179200000000017298000000001785100000000172980000000017298000000000000000005000000000000000706000000000012603054000000000000009999123100000010000000000000BRE1SSBDR003108
012022012702E1TN34      010EATON CORP PDRN          R$  000000004255500000000425550000000041956000000004195700000000419560000000041499000000000000000003000000000000001351000000000056683955000000000000009999123100000010000000000000BRE1TNBDR002108
012022012702E1WL34      010EDWARDS LIFEDRN          R$  000000001415000000000141500000000013861000000001411800000000138610000000013817000000000000000003000000000000000525000000000007412280000000000000009999123100000010000000000000BRE1WLBDR000101
012022012702E1XR34      010EXTRA SPACE DRN          R$  000000002610000000000261000000000025922000000002601100000000259220000000023000000000002900000002000000000000000002000000000000052022000000000000009999123100000010000000000000BRE1XRBDR005108
012022012702E2TS34      010ETSY INC    DRN          R$  000000000523800000000052400000000005070000000000523600000000050700000000000000000000000000000009000000000000001070000000000005603587000000000000009999123100000010000000000000BRE2TSBDR009100
012022012702EAIN34      010ELECTR ARTS DRN          R$  000000003595000000000359500000000035292000000003535300000000352920000000035292000000003784800007000000000000000255000000000009015100000000000000009999123100000010000000000000BREAINBDR007105
012022012702EALT3       010ACO ALTONA  ON  ED       R$  000000000101000000000010220000000001005000000000101400000000010050000000001001000000000107900004000000000000000400000000000000405800000000000000009999123100000010000000000000BREALTACNOR4135
012022012702EALT4       010ACO ALTONA  PN  ED       R$  000000000065400000000006940000000000653000000000067800000000006780000000000675000000000067800065000000000000012900000000000008750600000000000000009999123100000010000000000000BREALTACNPR1135
012022012702EBAY34      010EBAY        DRN          R$  000000001565900000000156590000000015303000000001552400000000153030000000015303000000001550000019000000000000000238000000000003694721000000000000009999123100000010000000000000BREBAYBDR009113
012022012702ECOR3       010ECORODOVIAS ON      NM   R$  000000000076000000000007850000000000752000000000077300000000007800000000000780000000000078111548000000000006277800000000004852895600000000000000009999123100000010000000000000BRECORACNOR8117
012022012702EGIE3       010ENGIE BRASILON      NM   R$  000000000395000000000039880000000003930000000000396500000000039710000000003970000000000397304652000000000000948100000000003759535100000000000000009999123100000010000000000000BREGIEACNOR9117
012022012702ELCI34      010ESTEE LAUDERDRN          R$  000000007900000000000821080000000078447000000008060200000000807780000000075000000000008077800024000000000000000934000000000075283153000000000000009999123100000010000000000000BRELCIBDR007109
012022012702ELET3       010ELETROBRAS  ON      N1   R$  000000000356000000000036200000000003467000000000353300000000034900000000003490000000000349521151000000000004578400000000016176630400000000000000009999123100000010000000000000BRELETACNOR6157
012022012702ELET6       010ELETROBRAS  PNB     N1   R$  000000000344000000000035030000000003365000000000342100000000034040000000003401000000000340408565000000000001762600000000006030356200000000000000009999123100000010000000000000BRELETACNPB7074
012022012702ELMD3       010ELETROMIDIA ON      NM   R$  000000000130000000000013950000000001300000000000138100000000013950000000001386000000000140000688000000000000245700000000000339454300000000000000009999123100000010000000000000BRELMDACNOR3100
012022012702EMAE4       010EMAE        PN           R$  000000000517500000000052490000000005090000000000515600000000051000000000005003000000000514900041000000000000007600000000000039188300000000000000009999123100000010000000000000BREMAEACNPR1119
012022012702EMBR3       010EMBRAER     ON      NM   R$  000000000204900000000020750000000001991000000000202900000000020070000000002006000000000200719872000000000010319500000000020944349100000000000000009999123100000010000000000000BREMBRACNOR4190
012022012702ENAT3       010ENAUTA PART ON      NM   R$  000000000147600000000015300000000001476000000000150800000000015160000000001516000000000151805843000000000001518400000000002290552800000000000000009999123100000010000000000000BRENATACNOR0102
012022012702ENBR3       010ENERGIAS BR ON      NM   R$  000000000212300000000021650000000002119000000000213400000000021360000000002136000000000213810301000000000003791400000000008094350900000000000000009999123100000010000000000000BRENBRACNOR2132
012022012702ENEV3       010ENEVA       ON      NM   R$  000000000133000000000013400000000001301000000000131500000000013200000000001320000000000132115407000000000008567100000000011269989800000000000000009999123100000010000000000000BRENEVACNOR8105
012022012702ENGI3       010ENERGISA    ON      N2   R$  000000000136000000000013790000000001332000000000135700000000013400000000001339000000000135900075000000000000009500000000000012891800000000000000009999123100000010000000000000BRENGIACNOR0141
012022012702ENGI4       010ENERGISA    PN      N2   R$  000000000072100000000007350000000000718000000000072500000000007250000000000719000000000072600086000000000000022200000000000016104000000000000000009999123100000010000000000000BRENGIACNPR7137
012022012702ENGI11      010ENERGISA    UNT     N2   R$  000000000428400000000043070000000004230000000000426100000000042710000000004265000000000427109875000000000001327100000000005655424100000000000000009999123100000010000000000000BRENGICDAM16131
012022012702ENJU3       010ENJOEI      ON      NM   R$  000000000029000000000003040000000000285000000000029300000000002930000000000292000000000029303386000000000002238300000000000658029100000000000000009999123100000010000000000000BRENJUACNOR9100
012022012702ENMT3       010ENERGISA MT ON           R$  000000000805800000000080990000000008000000000000804100000000080990000000007905000000000000000041000000000000005500000000000044226600000000000000009999123100000010000000000000BRENMTACNOR5114
012022012702EPAR3       010EMBPAR S/A  ON           R$  000000000127400000000012790000000001270000000000127300000000012700000000001270000000000129300004000000000000000400000000000000509300000000000000009999123100000010000000000000BREPARACNOR9100
012022012702EQIX34      010EQUINIX INC DRN          R$  000000000491000000000049100000000004604000000000464000000000046040000000004604000000000511000042000000000000013504000000000062665014000000000000009999123100000010000000000000BREQIXBDR002112
012022012702EQMA3B      010EQTLMARANHAOON      MB   R$  000000000407000000000040700000000004070000000000407000000000040700000000004065000000000454900001000000000000001200000000000004884000000000000000009999123100000010000000000000BREQMAACNOR8105
012022012702EQPA3       010EQTL PARA   ON           R$  000000000053600000000005450000000000536000000000053900000000005450000000000544000000000057100003000000000000000400000000000000215700000000000000009999123100000010000000000000BREQPAACNOR1105
012022012702EQTL3       010EQUATORIAL  ON      NM   R$  000000000224000000000022550000000002203000000000223400000000022400000000002240000000000224119447000000000008403000000000018778383500000000000000009999123100000010000000000000BREQTLACNOR0127
012022012702ESPA3       010ESPACOLASER ON      NM   R$  000000000061400000000006440000000000604000000000062100000000006150000000000613000000000061506339000000000002311400000000001436958700000000000000009999123100000010000000000000BRESPAACNOR7102
012022012702EUCA3       010EUCATEX     ON      N1   R$  000000000138500000000014040000000001384000000000138800000000014000000000001364000000000140000012000000000000002900000000000004027200000000000000009999123100000010000000000000BREUCAACNOR1154
012022012702EUCA4       010EUCATEX     PN      N1   R$  000000000085200000000009380000000000836000000000087700000000009380000000000901000000000093800308000000000000147600000000000129483300000000000000009999123100000010000000000000BREUCAACNPR8041
012022012702EVEN3       010EVEN        ON      NM   R$  000000000074500000000007570000000000734000000000074100000000007370000000000737000000000073905826000000000001604900000000001189679400000000000000009999123100000010000000000000BREVENACNOR8115
012022012702EXXO34      010EXXON MOBIL DRN          R$  000000001008100000000102110000000010047000000001007700000000100910000000010091000000001015300171000000000000230011000000002317831988000000000000009999123100000010000000000000BREXXOBDR006145
012022012702EZTC3       010EZTEC       ON      NM   R$  000000000215400000000021990000000002142000000000216900000000021590000000002156000000000216009538000000000001793500000000003890187800000000000000009999123100000010000000000000BREZTCACNOR0115
012022012702F1AN34      010DIAMONDBACK DRN          R$  000000003556100000000355610000000034410000000003459200000000349420000000000000000000003494200005000000000000000432000000000014943971000000000000009999123100000010000000000000BRF1ANBDR001108
012022012702F1FI34      010F5 INC      DRN          R$  000000002738400000000273840000000027356000000002737900000000273840000000000000000000000000000013000000000000000313000000000008569904000000000000009999123100000010000000000000BRF1FIBDR000100
012022012702F1MC34      010FMC CORP    DRN          R$  000000002914500000000291450000000029145000000002914500000000291450000000000000000000000000000003000000000000000003000000000000087435000000000000009999123100000010000000000000BRF1MCBDR009108
012022012702F1NI34      010FIDELITY NATDRN          R$  000000000370300000000037690000000003678000000000370300000000037070000000003670000000000370700017000000000000026821000000000099318570000000000000009999123100000010000000000000BRF1NIBDR004109
012022012702F1RI34      010FEDERAL REALDRN          R$  000000001689800000000168980000000016467000000001661700000000165440000000016544000000000000000073000000000000000082000000000001362629000000000000009999123100000010000000000000BRF1RIBDR005108
012022012702F1SL34      010FASTLY INC  DRN          R$  000000000143000000000014300000000001430000000000143000000000014300000000000000000000000174200001000000000000000010000000000000014300000000000000009999123100000010000000000000BRF1SLBDR007100
012022012702F1TN34      010FORTINET INCDRN          R$  000000007550000000000755000000000073600000000007431200000000736000000000070000000000000000000002000000000000000016000000000001189000000000000000009999123100000010000000000000BRF1TNBDR001100
012022012702F1TV34      010FORTIVE CORPDRN          R$  000000001853300000000185330000000018506000000001851500000000185060000000000000000000000000000006000000000000000006000000000000111092000000000000009999123100000010000000000000BRF1TVBDR004109
012022012702F2VR34      010FIVERR INTL DRN          R$  000000000196000000000019600000000001912000000000193300000000019120000000000000000000000550000003000000000000000010000000000000019336000000000000009999123100000010000000000000BRF2VRBDR006100
012022012702FBOK34      010META PLAT   DRN          R$  000000000569200000000058410000000005664000000000575100000000056930000000005693000000000571502214000000000000391043000000002249144706000000000000009999123100000010000000000000BRFBOKBDR006101
012022012702FCXO34      010FREEPORT    DRN          R$  000000002060000000000209280000000019998000000002025300000000201070000000020096000000002010700535000000000000003235000000000065519229000000000000009999123100000010000000000000BRFCXOBDR007136
012022012702FDMO34      010FORD MOTORS DRN          R$  000000001097800000000110110000000010549000000001066400000000105490000000010549000000001089800096000000000000005421000000000057810938000000000000009999123100000010000000000000BRFDMOBDR008134
012022012702FDXB34      010FEDEX CORP  DRN          R$  000000013213200000001321320000000131327000000013137200000001313270000000120000000000013132700002000000000000000053000000000006962746000000000000009999123100000010000000000000BRFDXBBDR002133
012022012702FESA4       010FERBASA     PN      N1   R$  000000000451400000000045450000000004380000000000448000000000045450000000004529000000000454501813000000000000370000000000001657717100000000000000009999123100000010000000000000BRFESAACNPR5073
012022012702FIQE3       010UNIFIQUE    ON      NM   R$  000000000061500000000006390000000000610000000000062700000000006390000000000625000000000063901065000000000000702300000000000440353900000000000000009999123100000010000000000000BRFIQEACNOR5101
012022012702FLRY3       010FLEURY      ON      NM   R$  000000000192900000000019710000000001905000000000194900000000019580000000001956000000000195811183000000000002259900000000004406115700000000000000009999123100000010000000000000BRFLRYACNOR5131
012022012702FLTC34      010FLEETCOR TECDRN          R$  000000003027000000000302700000000030270000000003027000000000302700000000000100000000000000000001000000000000000001000000000000030270000000000000009999123100000010000000000000BRFLTCBDR001100
012022012702FRAS3       010FRAS-LE     ON      N1   R$  000000000123200000000012380000000001217000000000122800000000012170000000001217000000000122701706000000000000474300000000000582568900000000000000009999123100000010000000000000BRFRASACNOR0153
012022012702FSLR34      010FIRST SOLAR DRN          R$  000000002050000000000205000000000019572000000002014200000000195720000000019572000000002139300012000000000000000126000000000002537949000000000000009999123100000010000000000000BRFSLRBDR001100
012022012702G1FI34      010GOLD FIELDS DRN          R$  000000000277500000000027750000000002715000000000277200000000027160000000000000000000000274200007000000000000003088000000000008560084000000000000009999123100000010000000000000BRG1FIBDR009102
012022012702G1LP34      010GALAPAGOS NVDRN          R$  000000000162500000000017710000000001625000000000176300000000017650000000001765000000000180000014000000000000000636000000000001121460000000000000009999123100000010000000000000BRG1LPBDR002100
012022012702G1PI34      010GLOBAL PAYMEDRN          R$  000000001905600000000190560000000019007000000001902700000000190190000000000000000000002180000003000000000000000003000000000000057082000000000000009999123100000010000000000000BRG1PIBDR008108
012022012702G1RM34      010GARMIN LTD  DRN          R$  000000003273600000000327360000000032736000000003273600000000327360000000000000000000000000000001000000000000000010000000000000327360000000000000009999123100000010000000000000BRG1RMBDR006108
012022012702G1SK34      010GLAXOSMITHKLDRN          R$  000000000491300000000049280000000004913000000000492700000000049280000000004928000000000550000004000000000000002863000000000014108265000000000000009999123100000010000000000000BRG1SKBDR008105
012022012702G1WW34      010WW GRAINGER DRN          R$  000000000649800000000064980000000006498000000000649800000000064980000000000000000000000000000001000000000000009791000000000063621918000000000000009999123100000010000000000000BRG1WWBDR005109
012022012702G2DI33      010G2D INVEST  DR3          R$  000000000049000000000004960000000000468000000000047600000000004960000000000481000000000049604018000000000000114366000000000054487170000000000000009999123100000010000000000000BRG2DIBDR002100
012022012702GDBR34      010GEN DYNAMICSDRN          R$  000000011288800000001128880000000112888000000011288800000001128880000000000000000000000000000001000000000000000005000000000000564440000000000000009999123100000010000000000000BRGDBRBDR002126
012022012702GEOO34      010GE          DRN          R$  000000004804800000000487060000000047823000000004838500000000484180000000048418000000005046700018000000000000000335000000000016209083000000000000009999123100000010000000000000BRGEOOBDR000147
012022012702GETT3       010GETNET BR   ON  EJ       R$  000000000016200000000001650000000000160000000000016100000000001620000000000161000000000016200484000000000000326200000000000052784500000000000000009999123100000010000000000000BRGETTACNOR4101
012022012702GETT4       010GETNET BR   PN  EJ       R$  000000000016400000000001660000000000160000000000016200000000001610000000000160000000000016100471000000000000362800000000000059085000000000000000009999123100000010000000000000BRGETTACNPR1101
012022012702GETT11      010GETNET BR   UNT EJ       R$  000000000032500000000003300000000000318000000000032200000000003230000000000322000000000032302496000000000001094400000000000353374600000000000000009999123100000010000000000000BRGETTCDAM17101
012022012702GFSA3       010GAFISA      ON      NM   R$  000000000019500000000002010000000000195000000000019800000000001980000000000198000000000019903465000000000005420700000000001073950700000000000000009999123100000010000000000000BRGFSAACNOR3120
012022012702GGBR3       010GERDAU      ON      N1   R$  000000000226400000000022850000000002222000000000224100000000022330000000002232000000000223500338000000000000054700000000000122610900000000000000009999123100000010000000000000BRGGBRACNOR1180
